:1000000012C02AC029C0BAC027C0A1C025C024C0C0
:1000100023C022C021C020C01FC01EC01DC01CC0E4
:100020001BC01AC019C011241FBECFEDCDBF10E0F8
:10003000A0E6B0E0ECEDF2E002C005900D92A4362F
:10004000B107D9F710E0A4E6B0E001C01D92AD36CB
:10005000B107E1F716D140C1D3CFBC9ABB9ABA9A87
:10006000C49AC39AC29A089580916000887F826082
:10007000809360000895809160008160897F809303
:10008000600008958091600087608093600008950B
:10009000809160008760809360000895F9DFE4DF5D
:1000A0000895F6DFE8DF089580916000876080930F
:1000B0006000089520916B0030916C0060916000A9
:1000C00070E062FF02C08FEF20C0285E334040E046
:1000D00050E0CB018270907060FD0BC00097B1F0D2
:1000E00084EF91E0A0E0B0E0821B930BA40BB50B72
:1000F00008C0009759F4DA01C901845F9140A0401B
:10010000B040B695A7959795879586BF8FEF90E7F6
:10011000A2E081509040A040E1F700C00000209193
:10012000600030E0C9018270907020FD04C000972B
:1001300049F0C49806C0009719F4C49AC39802C045
:10014000C49AC39A809160008093610008951F92C1
:100150000F920FB60F9211248F939F938091650099
:1001600090916600019690936600809365009F9140
:100170008F910F900FBE0F901F9018951F920F92A6
:100180000FB60F9211242F933F934F935F936F936A
:100190007F938F939F93AF93BF93EF93FF932091A0
:1001A0006700309168008091650090916600869BA1
:1001B00029C040E050E0205E3E4240405040A0E078
:1001C000B0E0DC0199278827280F391F4A1F5B1FE1
:1001D000213E6EE2360760E0460760E0560720F4F5
:1001E000109266001092650084B595B590936800F2
:1001F000809367008EB58F7B8EBD10926600109243
:1002000065002EC0E4B5F5B5F0936A00E09369008F
:100210004EB540644EBDA0E0B0E0DC0199278827D0
:10022000A90160E070E0841B950BA60BB70B9F0142
:1002300040E050E0820F931FA41FB51F9C01AD0149
:10024000265B334040405040263664E0360760E08D
:10025000460760E0560720F4E7E6F0E095838483E4
:10026000FF91EF91BF91AF919F918F917F916F918E
:100270005F914F913F912F910F900FBE0F901F9064
:1002800018951F931FEF10936000109361008CEF7F
:1002900087BB18BB11BA12BBE0DEFADE16BF87E8D7
:1002A00080BF82E083BF1FBC82EC8EBD88E889BF1F
:1002B000789480916B0090916C0026E08F309207CB
:1002C00010F0ECDE07C025E08A3A920710F4E9DE70
:0C02D00001C0DEDEEFDEEDCFF894FFCFC2
:0402DC00FFFFE00040
:00000001FF
