:1000000014C02CC02BC02AC029C028C027C026C0BD
:1000100025C024C023C022C021C020C01FC01EC0D4
:100020001DC01CC01BC01AC019C011241FBECFEDBB
:10003000CDBF10E0A0E6B0E0E2E3F1E002C0059041
:100040000D92A236B107D9F710E0A2E6B0E001C0E8
:100050001D92A836B107E1F75AD069C0D1CF80917F
:100060006000887F826080936000089580916000C6
:100070008160897F8093600008958091600087602F
:100080008093600008958091600084608093600098
:100090000895F9DFE4DF0895F6DFE8DF0895809141
:1000A000600084608093600008952091600030E0DB
:1000B0008091610090E0822793278770907000976D
:1000C00011F4B4980895B2988FEF90E7A2E08150B0
:1000D0009040A040E1F700C00000C901827090701C
:1000E00020FD08C0009719F4B498B2980BC0B498DA
:1000F000B29A08C0009719F4B29AB49803C0B498A1
:10010000B298B3988091600080936100089583E075
:1001100081BB8FEF82BB87BB88BB81E086BF80E558
:100120008CBF87EF80BF82E083BF83BFFFCFF8948F
:02013000FFCFFF
:02013200FFFFCD
:00000001FF
