:1000000012C02AC029C028C086C026C025C024C06E
:1000100023C022C021C0CDC01FC01EC01DC01CC037
:100020001BC01AC019C011241FBECFEDCDBF10E0F8
:10003000A0E6B0E0E0EEF2E002C005900D92A4363A
:10004000B107D9F710E0A4E6B0E001C01D92AC38CA
:10005000B107E1F701D142C1D3CF80916000887F21
:100060008260809360000895809160008160897F44
:1000700080936000089580916000876080936000A5
:100080000895809160008460809360000895F9DF96
:10009000E4DF0895F6DFE8DF089580916000846072
:1000A0008093600008952091610030E0A9014270C2
:1000B00050708091600090E08170907048175907EF
:1000C00011F422FF27C0B498B2988FEF90E7A2E016
:1000D00081509040A040E1F700C0000020916000F6
:1000E00030E0C9018270907020FD08C0009719F4BB
:1000F000B498B2980BC0B498B29A08C0009719F49B
:10010000B29AB49803C0B498B298B3988091600042
:100110008093610008951F920F920FB60F921124E1
:100120002F933F934F935F936F937F938F939F93FF
:10013000AF93BF93EF93FF9360916B0070916C004E
:1001400080916D0090916E006F5F7F4F8F4F9F4F3A
:1001500060936B0070936C0080936D0090936E00C1
:1001600020EA36E841E050E097D06115710581053D
:10017000910571F080916A00882339F488B3807EFC
:1001800088BB81E080936A0003C0C49A10926A0021
:10019000FF91EF91BF91AF919F918F917F916F915F
:1001A0005F914F913F912F910F900FBE0F901F9035
:1001B00018951F920F920FB60F9211242F933F9311
:1001C0004F935F938F939F93AF93BF9380916B00F7
:1001D00090916C00A0916D00B0916E00B09B27C013
:1001E00020918400309185004091860050918700D5
:1001F0008093800090938100A0938200B09383004D
:10020000805E9E42A040B040821B930BA40BB50BB6
:10021000813E2EE2920720E0A20720E0B20720F400
:1002200081E080937F000BC010927F0008C0809314
:10023000840090938500A0938600B0938700BF91BF
:10024000AF919F918F915F914F913F912F910F901F
:100250000FBE0F901F9018958CEF87BB18BA16BE73
:1002600087EF80BF82E083BF80E293E09BBD8ABDC1
:100270001FBC8CE08EBD80E489BF80E38BBF81E032
:1002800080BD78948FEF90E7A2E081509040A0402D
:10029000E1F700C00000F6CFA1E21A2EAA1BBB1B9B
:1002A000FD010DC0AA1FBB1FEE1FFF1FA217B30742
:1002B000E407F50720F0A21BB30BE40BF50B661F58
:1002C000771F881F991F1A9469F76095709580951C
:1002D00090959B01AC01BD01CF010895F894FFCF2B
:0402E000FFFFE0003C
:00000001FF
