:1000000012C02AC029C098C027C07FC025C024C004
:1000100023C022C021C020C01FC01EC01DC01CC0E4
:100020001BC01AC019C011241FBECFEDCDBF10E0F8
:10003000A0E6B0E0E0EAF2E002C005900D92A4363E
:10004000B107D9F710E0A4E6B0E001C01D92A337D4
:10005000B107E1F7F4D022C1D3CFBC9ABB9ABA9AC8
:10006000C49AC39AC29A089580916000887F826082
:10007000809360000895809160008160897F809303
:10008000600008958091600087608093600008950B
:10009000809160008760809360000895F9DFE4DF5D
:1000A0000895F6DFE8DF089580916000876080930F
:1000B000600008958091600082FF03C08FEF86BFCB
:1000C00001C016BEC49AC39A8FEF90E7A2E0815098
:1000D0009040A040E1F700C000002091600030E0B7
:1000E000C9018270907020FD04C0009749F0C49847
:1000F00006C0009719F4C49AC39802C0C49AC39A60
:10010000809160008093610008951F920F920FB656
:100110000F9211248F939F9380916B0090916C00AC
:10012000019690936C0080936B009F918F910F903C
:100130000FBE0F901F9018951F920F920FB60F923F
:1001400011242F933F934F935F936F937F938F93DC
:100150009F93AF93BF93EF93FF9320916D003091E6
:100160006E0080916B0090916C00869B29C040E0EE
:1001700050E0205E3E4240405040A0E0B0E0DC0154
:1001800099278827280F391F4A1F5B1F213E6EE2DF
:10019000360760E0460760E0560720F410926C00D6
:1001A00010926B0084B595B590936E0080936D00AE
:1001B0008EB58F7B8EBD10926C0010926B002EC09E
:1001C000E4B5F5B5F0937000E0936F004EB5406470
:1001D0004EBDA0E0B0E0DC0199278827A90160E0CE
:1001E00070E0841B950BA60BB70B9F0140E050E01D
:1001F000820F931FA41FB51F9C01AD01265B3340E6
:1002000040405040263664E0360760E0460760E034
:10021000560720F4EDE6F0E095838483FF91EF919B
:10022000BF91AF919F918F917F916F915F914F910E
:100230003F912F910F900FBE0F901F9018951F9315
:100240008CEF87BB18BA11BA1FEF12BB06DF16BFBF
:1002500087EF80BF82E083BF1FBC82EC8EBD88E841
:1002600089BF7894809171009091720026E081346A
:10027000920710F013DF07C0A5E088379A0710F443
:1002800010DF01C005DF16DF8FEF90E7A2E081509D
:100290009040A040E1F700C00000E4CFF894FFCF09
:0402A000FFFFE0007C
:00000001FF
