:1000000012C02AC029C09EC027C085C025C024C0F8
:1000100023C022C021C020C01FC01EC01DC01CC0E4
:100020001BC01AC019C011241FBECFEDCDBF10E0F8
:10003000A0E6B0E0ECEAF2E002C005900D92A43632
:10004000B107D9F710E0A4E6B0E001C01D92AC37CB
:10005000B107E1F706D128C1D3CF80916000887F36
:100060008260809360000895809160008160897F44
:1000700080936000089580916000876080936000A5
:100080000895809160008460809360000895F9DF96
:10009000E4DF0895F6DFE8DF089580916000846072
:1000A0008093600008952091610030E0A9014270C2
:1000B00050708091600090E08170907048175907EF
:1000C00011F422FF27C0B498B2988FEF90E7A2E016
:1000D00081509040A040E1F700C0000020916000F6
:1000E00030E0C9018270907020FD08C0009719F4BB
:1000F000B498B2980BC0B498B29A08C0009719F49B
:10010000B29AB49803C0B498B298B3988091600042
:100110008093610008951F920F920FB60F921124E1
:100120008F939F9380916B0090916C0001969093B8
:100130006C0080936B009F918F910F900FBE0F907A
:100140001F9018951F920F920FB60F9211242F93A4
:100150003F934F935F936F937F938F939F93AF934F
:10016000BF93EF93FF9320917000309171008091C5
:100170006B0090916C00869B29C040E050E0205EAF
:100180003E4240405040A0E0B0E0DC019927882783
:10019000280F391F4A1F5B1F213E6EE2360760E0C1
:1001A000460760E0560720F410926C0010926B0036
:1001B00084B595B590937100809370008EB58F7B58
:1001C0008EBD10926C0010926B003AC0E4B5F5B58C
:1001D000F0937300E09372004EB540644EBDA0E012
:1001E000B0E0DC0199278827A90160E070E0841B5A
:1001F000950BA60BB70B9F0140E050E0820F931FB9
:10020000A41FB51F9C01AD01265B33404040504008
:10021000263664E0360760E0460760E0560780F463
:100220009093750080937400885E9340A040B04026
:1002300022E0B695A795979587952A95D1F786BF21
:10024000FF91EF91BF91AF919F918F917F916F91AE
:100250005F914F913F912F910F900FBE0F901F9084
:1002600018958CEF87BB18BA11BA8FEF82BB16BEF8
:1002700087EF80BF82E083BF1FBC82EC8EBD88E821
:1002800089BF109276001092770010927800109239
:10029000790078948FEF90E7A2E081509040A040E1
:0C02A000E1F700C00000F6CFF894FFCF9B
:0402AC00FFFFE00070
:00000001FF
