:1000000012C02AC029C0C7C027C0A5C025C024C0AF
:1000100023C022C021C020C01FC01EC01DC01CC0E4
:100020001BC01AC019C011241FBECFEDCDBF10E0F8
:10003000A0E6B0E0EEEBF3E002C005900D92AA3628
:10004000B107D9F710E0AAE6B0E001C01D92AD36C5
:10005000B107E1F72AD1B1C1D3CFBC9ABB9ABA9A02
:10006000C49AC39AC29A089580916900887F826079
:10007000809369000895809169008160897F8093F1
:1000800069000895809169008760809369000895F0
:10009000809169008760809369000895F9DFE4DF4B
:1000A0000895F6DFE8DF0895809169008760809306
:1000B0006900089540916400509165008091690045
:1000C00090E082FF02C08FEF18C0485E534060E0AE
:1000D00070E09C012270307080FD11C02115310547
:1000E000D1F084EF91E0A0E0B0E0841B950BA60B6B
:1000F000B70BB695A7959795879586BF0CC0211528
:10010000310549F4445F51406040704076956795F1
:100110005795479546BF8FEF90E7A2E081509040FA
:10012000A040E1F700C000002091690030E0C90163
:100130008270907020FD04C0009741F0C49805C003
:10014000C49A009711F4C39801C0C39A80916900C2
:100150008093680008951F920F920FB60F9211249A
:100160008F939F9380916A0090916B00019690937A
:100170006B0080936A008430910520F081E08093C9
:10018000660002C0109266009F918F910F900FBE83
:100190000F901F9018951F920F920FB60F92112477
:1001A0000F931F932F933F934F935F936F937F937F
:1001B0008F939F93AF93BF93EF93FF9380916A00C8
:1001C00090916B00869B2DC0409160005091610022
:1001D00060E070E0405E5E4260407040A0E0B0E0F1
:1001E000DC0199278827480F591F6A1F7B1F413E52
:1001F0002EE2520720E0620720E0720720F41092FE
:100200006B0010926A0084B595B59093610080935D
:1002100060008EB58F7B8EBD10926B0010926A00CD
:1002200031C044B555B550936300409362002EB57C
:1002300020642EBDA0E0B0E0DC0199278827209142
:10024000600030916100890120E030E0801B910B5B
:10025000A20BB30B60E070E0840F951FA61FB71FC1
:10026000AC01BD01465B534060407040463624E01F
:10027000520720E0620720E0720720F4E0E6F0E099
:1002800095838483FF91EF91BF91AF919F918F915F
:100290007F916F915F914F913F912F911F910F919E
:1002A0000F900FBE0F901F9018952DE088E190E001
:1002B0000FB6F894A89581BD0FBE21BDCFEFC093B6
:1002C0006900C09368008CEF87BBC8BB11BAC2BB82
:1002D000C4DEDEDE8FE79AE1A6E081509040A040C8
:1002E000E1F700C00000A8958FE79AE1A6E08150F1
:1002F0009040A040E1F700C00000A8958FE79AE188
:10030000A6E081509040A040E1F700C00000A89511
:100310008FE79AE1A6E081509040A040E1F700C04D
:100320000000A8958FE79AE1A6E081509040A04098
:10033000E1F700C00000A8958FE79AE1A6E08150A0
:100340009040A040E1F700C00000A8958FE79AE137
:10035000A6E081509040A040E1F700C00000A895C1
:100360008FE79AE1A6E081509040A040E1F700C0FD
:100370000000A895C6BF87E880BF82E083BF1FBC8E
:1003800082EC8EBD88E889BF7894A895809166003C
:10039000882381F48091640090916500A6E08F30FD
:1003A0009A0710F07BDE07C0B5E08A3A9B0710F48D
:0E03B00078DE01C06DDE7EDEE8CFF894FFCF70
:0A03BE0000000000DC0501E0FFFF75
:00000001FF
